{"abi":[{"type":"function","name":"TURN_DURATION","inputs":[],"outputs":[{"name":"","type":"uint256","internalType":"uint256"}],"stateMutability":"view"},{"type":"function","name":"commitMove","inputs":[{"name":"gameId","type":"uint256","internalType":"uint256"},{"name":"moveCommitment","type":"bytes32","internalType":"bytes32"}],"outputs":[],"stateMutability":"nonpayable"},{"type":"function","name":"createGame","inputs":[{"name":"userAddressesHash","type":"bytes32","internalType":"bytes32"},{"name":"players","type":"address[]","internalType":"address[]"},{"name":"numWerewolves","type":"uint256","internalType":"uint256"},{"name":"userRoleCommitments","type":"bytes32[]","internalType":"bytes32[]"}],"outputs":[{"name":"","type":"uint256","internalType":"uint256"}],"stateMutability":"nonpayable"},{"type":"function","name":"endTurn","inputs":[{"name":"gameId","type":"uint256","internalType":"uint256"},{"name":"commitments","type":"bytes32[]","internalType":"bytes32[]"},{"name":"proof","type":"bytes","internalType":"bytes"}],"outputs":[],"stateMutability":"nonpayable"},{"type":"function","name":"getCurrentMoveCommitments","inputs":[{"name":"gameId","type":"uint256","internalType":"uint256"}],"outputs":[{"name":"","type":"bytes32[]","internalType":"bytes32[]"}],"stateMutability":"view"},{"type":"function","name":"getMoveCommitment","inputs":[{"name":"gameId","type":"uint256","internalType":"uint256"},{"name":"player","type":"address","internalType":"address"}],"outputs":[{"name":"","type":"bytes32","internalType":"bytes32"}],"stateMutability":"view"},{"type":"function","name":"getNumPlayers","inputs":[{"name":"gameId","type":"uint256","internalType":"uint256"}],"outputs":[{"name":"","type":"uint256","internalType":"uint256"}],"stateMutability":"view"},{"type":"function","name":"getNumWerewolves","inputs":[{"name":"gameId","type":"uint256","internalType":"uint256"}],"outputs":[{"name":"","type":"uint256","internalType":"uint256"}],"stateMutability":"view"},{"type":"function","name":"getUserAddressesHash","inputs":[{"name":"gameId","type":"uint256","internalType":"uint256"}],"outputs":[{"name":"","type":"bytes32","internalType":"bytes32"}],"stateMutability":"view"},{"type":"function","name":"getUserRoleCommitment","inputs":[{"name":"gameId","type":"uint256","internalType":"uint256"},{"name":"index","type":"uint256","internalType":"uint256"}],"outputs":[{"name":"","type":"bytes32","internalType":"bytes32"}],"stateMutability":"view"},{"type":"function","name":"getUserRoleCommitments","inputs":[{"name":"gameId","type":"uint256","internalType":"uint256"}],"outputs":[{"name":"","type":"bytes32[]","internalType":"bytes32[]"}],"stateMutability":"view"},{"type":"function","name":"isPlayerInGame","inputs":[{"name":"gameId","type":"uint256","internalType":"uint256"},{"name":"player","type":"address","internalType":"address"}],"outputs":[{"name":"","type":"bool","internalType":"bool"}],"stateMutability":"view"},{"type":"function","name":"nextGameId","inputs":[],"outputs":[{"name":"","type":"uint256","internalType":"uint256"}],"stateMutability":"view"},{"type":"function","name":"startNextTurn","inputs":[{"name":"gameId","type":"uint256","internalType":"uint256"}],"outputs":[],"stateMutability":"nonpayable"},{"type":"event","name":"GameCreated","inputs":[{"name":"gameId","type":"uint256","indexed":true,"internalType":"uint256"},{"name":"admin","type":"address","indexed":true,"internalType":"address"},{"name":"userAddressesHash","type":"bytes32","indexed":false,"internalType":"bytes32"},{"name":"numPlayers","type":"uint256","indexed":false,"internalType":"uint256"},{"name":"numWerewolves","type":"uint256","indexed":false,"internalType":"uint256"},{"name":"userRoleCommitments","type":"bytes32[]","indexed":false,"internalType":"bytes32[]"}],"anonymous":false},{"type":"event","name":"MoveCommitted","inputs":[{"name":"gameId","type":"uint256","indexed":true,"internalType":"uint256"},{"name":"player","type":"address","indexed":true,"internalType":"address"},{"name":"commitment","type":"bytes32","indexed":false,"internalType":"bytes32"}],"anonymous":false},{"type":"event","name":"NextTurnStarted","inputs":[{"name":"gameId","type":"uint256","indexed":true,"internalType":"uint256"},{"name":"turnNumber","type":"uint256","indexed":false,"internalType":"uint256"}],"anonymous":false},{"type":"event","name":"TurnEnded","inputs":[{"name":"gameId","type":"uint256","indexed":true,"internalType":"uint256"},{"name":"turnNumber","type":"uint256","indexed":false,"internalType":"uint256"},{"name":"commitments","type":"bytes32[]","indexed":false,"internalType":"bytes32[]"}],"anonymous":false}],"bytecode":{"object":"0x6080604052600180553480156012575f5ffd5b50611ada806100205f395ff3fe608060405234801561000f575f5ffd5b50600436106100e8575f3560e01c80639f13558f1161008a578063b8f46aa211610064578063b8f46aa214610292578063bc2eb2cd146102ae578063d68c7ea6146102de578063f2f5f1c1146102fc576100e8565b80639f13558f14610214578063a6ab89b814610244578063b135bbb014610274576100e8565b80632bf336d8116100c65780632bf336d8146101685780634f3e50551461019857806355f66c47146101c857806386ac084d146101f8576100e8565b80630c71cc5a146100ec5780630d3b404f1461011c57806326826f621461014c575b5f5ffd5b61010660048036038101906101019190610f70565b61032c565b6040516101139190610fc6565b60405180910390f35b61013660048036038101906101319190611039565b610363565b6040516101439190611091565b60405180910390f35b610166600480360381019061016191906110d4565b6103c7565b005b610182600480360381019061017d9190611112565b61061a565b60405161018f91906111f4565b60405180910390f35b6101b260048036038101906101ad91906112ca565b610683565b6040516101bf919061137c565b60405180910390f35b6101e260048036038101906101dd9190611112565b6108ef565b6040516101ef919061137c565b60405180910390f35b610212600480360381019061020d9190611112565b61090b565b005b61022e60048036038101906102299190611112565b610b1c565b60405161023b9190610fc6565b60405180910390f35b61025e60048036038101906102599190611039565b610b38565b60405161026b9190610fc6565b60405180910390f35b61027c610b90565b604051610289919061137c565b60405180910390f35b6102ac60048036038101906102a791906113ea565b610b96565b005b6102c860048036038101906102c39190611112565b610e1d565b6040516102d5919061137c565b60405180910390f35b6102e6610e39565b6040516102f3919061137c565b60405180910390f35b61031660048036038101906103119190611112565b610e3e565b60405161032391906111f4565b60405180910390f35b5f5f5f8481526020019081526020015f2060040182815481106103525761035161147b565b5b905f5260205f200154905092915050565b5f5f5f8481526020019081526020015f206005015f8373ffffffffffffffffffffffffffffffffffffffff1673ffffffffffffffffffffffffffffffffffffffff1681526020019081526020015f205f9054906101000a900460ff16905092915050565b815f5f8281526020019081526020015f206009015f9054906101000a900460ff16610427576040517f08c379a000000000000000000000000000000000000000000000000000000000815260040161041e90611502565b60405180910390fd5b825f5f8281526020019081526020015f206005015f3373ffffffffffffffffffffffffffffffffffffffff1673ffffffffffffffffffffffffffffffffffffffff1681526020019081526020015f205f9054906101000a900460ff166104c2576040517f08c379a00000000000000000000000000000000000000000000000000000000081526004016104b99061156a565b60405180910390fd5b5f5f5f8681526020019081526020015f2090505f5f1b816006015f3373ffffffffffffffffffffffffffffffffffffffff1673ffffffffffffffffffffffffffffffffffffffff1681526020019081526020015f205414610558576040517f08c379a000000000000000000000000000000000000000000000000000000000815260040161054f906115d2565b60405180910390fd5b83816006015f3373ffffffffffffffffffffffffffffffffffffffff1673ffffffffffffffffffffffffffffffffffffffff1681526020019081526020015f208190555080600a0184908060018154018082558091505060019003905f5260205f20015f90919091909150553373ffffffffffffffffffffffffffffffffffffffff16857f554a5d15a082f1f9f6e4aa87ae9c371a1374441e761d7f795ed28d4588d6b0088660405161060b9190610fc6565b60405180910390a35050505050565b60605f5f8381526020019081526020015f20600a0180548060200260200160405190810160405280929190818152602001828054801561067757602002820191905f5260205f20905b815481526020019060010190808311610663575b50505050509050919050565b5f8282905086869050146106cc576040517f08c379a00000000000000000000000000000000000000000000000000000000081526004016106c390611660565b60405180910390fd5b5f841180156106dd57508585905084105b61071c576040517f08c379a0000000000000000000000000000000000000000000000000000000008152600401610713906116c8565b60405180910390fd5b5f60015f81548092919061072f90611713565b9190505590505f5f5f8381526020019081526020015f20905033815f015f6101000a81548173ffffffffffffffffffffffffffffffffffffffff021916908373ffffffffffffffffffffffffffffffffffffffff1602179055508881600101819055508787905081600201819055508581600301819055506001816009015f6101000a81548160ff0219169083151502179055506001816007018190555042816008018190555084848260040191906107e9929190610eb1565b505f5f90505b88889050811015610885576001826005015f8b8b858181106108145761081361147b565b5b9050602002016020810190610829919061175a565b73ffffffffffffffffffffffffffffffffffffffff1673ffffffffffffffffffffffffffffffffffffffff1681526020019081526020015f205f6101000a81548160ff02191690831515021790555080806001019150506107ef565b503373ffffffffffffffffffffffffffffffffffffffff16827f274d7f0e3a1f0a5e55744325c53d3c94d68e9321f19dcb7784974a27d2f9d1c08b8b8b90508a8a8a6040516108d89594939291906117ed565b60405180910390a381925050509695505050505050565b5f5f5f8381526020019081526020015f20600201549050919050565b805f5f8281526020019081526020015f206009015f9054906101000a900460ff1661096b576040517f08c379a000000000000000000000000000000000000000000000000000000000815260040161096290611502565b60405180910390fd5b815f5f8281526020019081526020015f206005015f3373ffffffffffffffffffffffffffffffffffffffff1673ffffffffffffffffffffffffffffffffffffffff1681526020019081526020015f205f9054906101000a900460ff16610a06576040517f08c379a00000000000000000000000000000000000000000000000000000000081526004016109fd9061156a565b60405180910390fd5b5f5f5f8581526020019081526020015f209050610a2281610ea7565b15610a62576040517f08c379a0000000000000000000000000000000000000000000000000000000008152600401610a5990611883565b60405180910390fd5b60b48160080154610a7391906118a1565b421015610ab5576040517f08c379a0000000000000000000000000000000000000000000000000000000008152600401610aac9061191e565b60405180910390fd5b4281600801819055506001816009015f6101000a81548160ff021916908315150217905550837f7146bfbeafb9e82e09149c2f72f3436424c4e0d04ddcda6cedaf038eb2f10c428260070154604051610b0e919061137c565b60405180910390a250505050565b5f5f5f8381526020019081526020015f20600101549050919050565b5f5f5f8481526020019081526020015f206006015f8373ffffffffffffffffffffffffffffffffffffffff1673ffffffffffffffffffffffffffffffffffffffff1681526020019081526020015f2054905092915050565b60015481565b843373ffffffffffffffffffffffffffffffffffffffff165f5f8381526020019081526020015f205f015f9054906101000a900473ffffffffffffffffffffffffffffffffffffffff1673ffffffffffffffffffffffffffffffffffffffff1614610c36576040517f08c379a0000000000000000000000000000000000000000000000000000000008152600401610c2d90611986565b60405180910390fd5b855f5f8281526020019081526020015f206009015f9054906101000a900460ff16610c96576040517f08c379a0000000000000000000000000000000000000000000000000000000008152600401610c8d90611502565b60405180910390fd5b5f5f5f8981526020019081526020015f20905060b48160080154610cba91906118a1565b421015610cfc576040517f08c379a0000000000000000000000000000000000000000000000000000000008152600401610cf3906119ee565b60405180910390fd5b80600201548787905014610d45576040517f08c379a0000000000000000000000000000000000000000000000000000000008152600401610d3c90611a56565b60405180910390fd5b877fb86a7a5efa2c6d521ca07a165ffd49997c73d009ea6bdddc0e5c38cb627152f482600701548989604051610d7d93929190611a74565b60405180910390a25f5f90505b8160020154811015610da3578080600101915050610d8a565b505f5f90505b81600a0180549050811015610dc5578080600101915050610da9565b5080600a015f610dd59190610efc565b806007015f815480929190610de990611713565b91905055506001816009015f6101000a81548160ff0219169083151502179055504281600801819055505050505050505050565b5f5f5f8381526020019081526020015f20600301549050919050565b60b481565b60605f5f8381526020019081526020015f20600401805480602002602001604051908101604052809291908181526020018280548015610e9b57602002820191905f5260205f20905b815481526020019060010190808311610e87575b50505050509050919050565b5f60019050919050565b828054828255905f5260205f20908101928215610eeb579160200282015b82811115610eea578235825591602001919060010190610ecf565b5b509050610ef89190610f1a565b5090565b5080545f8255905f5260205f2090810190610f179190610f1a565b50565b5b80821115610f31575f815f905550600101610f1b565b5090565b5f5ffd5b5f5ffd5b5f819050919050565b610f4f81610f3d565b8114610f59575f5ffd5b50565b5f81359050610f6a81610f46565b92915050565b5f5f60408385031215610f8657610f85610f35565b5b5f610f9385828601610f5c565b9250506020610fa485828601610f5c565b9150509250929050565b5f819050919050565b610fc081610fae565b82525050565b5f602082019050610fd95f830184610fb7565b92915050565b5f73ffffffffffffffffffffffffffffffffffffffff82169050919050565b5f61100882610fdf565b9050919050565b61101881610ffe565b8114611022575f5ffd5b50565b5f813590506110338161100f565b92915050565b5f5f6040838503121561104f5761104e610f35565b5b5f61105c85828601610f5c565b925050602061106d85828601611025565b9150509250929050565b5f8115159050919050565b61108b81611077565b82525050565b5f6020820190506110a45f830184611082565b92915050565b6110b381610fae565b81146110bd575f5ffd5b50565b5f813590506110ce816110aa565b92915050565b5f5f604083850312156110ea576110e9610f35565b5b5f6110f785828601610f5c565b9250506020611108858286016110c0565b9150509250929050565b5f6020828403121561112757611126610f35565b5b5f61113484828501610f5c565b91505092915050565b5f81519050919050565b5f82825260208201905092915050565b5f819050602082019050919050565b61116f81610fae565b82525050565b5f6111808383611166565b60208301905092915050565b5f602082019050919050565b5f6111a28261113d565b6111ac8185611147565b93506111b783611157565b805f5b838110156111e75781516111ce8882611175565b97506111d98361118c565b9250506001810190506111ba565b5085935050505092915050565b5f6020820190508181035f83015261120c8184611198565b905092915050565b5f5ffd5b5f5ffd5b5f5ffd5b5f5f83601f84011261123557611234611214565b5b8235905067ffffffffffffffff81111561125257611251611218565b5b60208301915083602082028301111561126e5761126d61121c565b5b9250929050565b5f5f83601f84011261128a57611289611214565b5b8235905067ffffffffffffffff8111156112a7576112a6611218565b5b6020830191508360208202830111156112c3576112c261121c565b5b9250929050565b5f5f5f5f5f5f608087890312156112e4576112e3610f35565b5b5f6112f189828a016110c0565b965050602087013567ffffffffffffffff81111561131257611311610f39565b5b61131e89828a01611220565b9550955050604061133189828a01610f5c565b935050606087013567ffffffffffffffff81111561135257611351610f39565b5b61135e89828a01611275565b92509250509295509295509295565b61137681610f3d565b82525050565b5f60208201905061138f5f83018461136d565b92915050565b5f5f83601f8401126113aa576113a9611214565b5b8235905067ffffffffffffffff8111156113c7576113c6611218565b5b6020830191508360018202830111156113e3576113e261121c565b5b9250929050565b5f5f5f5f5f6060868803121561140357611402610f35565b5b5f61141088828901610f5c565b955050602086013567ffffffffffffffff81111561143157611430610f39565b5b61143d88828901611275565b9450945050604086013567ffffffffffffffff8111156114605761145f610f39565b5b61146c88828901611395565b92509250509295509295909350565b7f4e487b71000000000000000000000000000000000000000000000000000000005f52603260045260245ffd5b5f82825260208201905092915050565b7f47616d65206e6f742061637469766500000000000000000000000000000000005f82015250565b5f6114ec600f836114a8565b91506114f7826114b8565b602082019050919050565b5f6020820190508181035f830152611519816114e0565b9050919050565b7f4e6f7420706c6179657220696e2067616d6500000000000000000000000000005f82015250565b5f6115546012836114a8565b915061155f82611520565b602082019050919050565b5f6020820190508181035f83015261158181611548565b9050919050565b7f416c7265616479207375626d6974746564206d6f76652074686973207475726e5f82015250565b5f6115bc6020836114a8565b91506115c782611588565b602082019050919050565b5f6020820190508181035f8301526115e9816115b0565b9050919050565b7f506c617965727320616e6420636f6d6d69746d656e747320636f756e74206d695f8201527f736d617463680000000000000000000000000000000000000000000000000000602082015250565b5f61164a6026836114a8565b9150611655826115f0565b604082019050919050565b5f6020820190508181035f8301526116778161163e565b9050919050565b7f496e76616c69642077657265776f6c6620636f756e74000000000000000000005f82015250565b5f6116b26016836114a8565b91506116bd8261167e565b602082019050919050565b5f6020820190508181035f8301526116df816116a6565b9050919050565b7f4e487b71000000000000000000000000000000000000000000000000000000005f52601160045260245ffd5b5f61171d82610f3d565b91507fffffffffffffffffffffffffffffffffffffffffffffffffffffffffffffffff820361174f5761174e6116e6565b5b600182019050919050565b5f6020828403121561176f5761176e610f35565b5b5f61177c84828501611025565b91505092915050565b5f5ffd5b82818337505050565b5f61179d8385611147565b93507f07ffffffffffffffffffffffffffffffffffffffffffffffffffffffffffffff8311156117d0576117cf611785565b5b6020830292506117e1838584611789565b82840190509392505050565b5f6080820190506118005f830188610fb7565b61180d602083018761136d565b61181a604083018661136d565b818103606083015261182d818486611792565b90509695505050505050565b7f5475726e20616c726561647920616374697665000000000000000000000000005f82015250565b5f61186d6013836114a8565b915061187882611839565b602082019050919050565b5f6020820190508181035f83015261189a81611861565b9050919050565b5f6118ab82610f3d565b91506118b683610f3d565b92508282019050808211156118ce576118cd6116e6565b5b92915050565b7f546f6f20736f6f6e20746f207374617274206e657874207475726e00000000005f82015250565b5f611908601b836114a8565b9150611913826118d4565b602082019050919050565b5f6020820190508181035f830152611935816118fc565b9050919050565b7f4e6f742067616d652061646d696e0000000000000000000000000000000000005f82015250565b5f611970600e836114a8565b915061197b8261193c565b602082019050919050565b5f6020820190508181035f83015261199d81611964565b9050919050565b7f5475726e2074696d65206e6f7420656c617073656400000000000000000000005f82015250565b5f6119d86015836114a8565b91506119e3826119a4565b602082019050919050565b5f6020820190508181035f830152611a05816119cc565b9050919050565b7f436f6d6d69746d656e747320636f756e74206d69736d617463680000000000005f82015250565b5f611a40601a836114a8565b9150611a4b82611a0c565b602082019050919050565b5f6020820190508181035f830152611a6d81611a34565b9050919050565b5f604082019050611a875f83018661136d565b8181036020830152611a9a818486611792565b905094935050505056fea2646970667358221220dbcc4aff0c84db997638fc521633c1d616be290a366505f2d44516186ee7fb1064736f6c634300081e0033","linkReferences":{}},"methodIdentifiers":{"TURN_DURATION()":"d68c7ea6","commitMove(uint256,bytes32)":"26826f62","createGame(bytes32,address[],uint256,bytes32[])":"4f3e5055","endTurn(uint256,bytes32[],bytes)":"b8f46aa2","getCurrentMoveCommitments(uint256)":"2bf336d8","getMoveCommitment(uint256,address)":"a6ab89b8","getNumPlayers(uint256)":"55f66c47","getNumWerewolves(uint256)":"bc2eb2cd","getUserAddressesHash(uint256)":"9f13558f","getUserRoleCommitment(uint256,uint256)":"0c71cc5a","getUserRoleCommitments(uint256)":"f2f5f1c1","isPlayerInGame(uint256,address)":"0d3b404f","nextGameId()":"b135bbb0","startNextTurn(uint256)":"86ac084d"},"id":21}