{"abi":[{"type":"function","name":"TURN_DURATION","inputs":[],"outputs":[{"name":"","type":"uint256","internalType":"uint256"}],"stateMutability":"view"},{"type":"function","name":"VOTE_DURATION","inputs":[],"outputs":[{"name":"","type":"uint256","internalType":"uint256"}],"stateMutability":"view"},{"type":"function","name":"castVote","inputs":[{"name":"gameId","type":"uint256","internalType":"uint256"},{"name":"target","type":"address","internalType":"address"}],"outputs":[],"stateMutability":"nonpayable"},{"type":"function","name":"commitMove","inputs":[{"name":"gameId","type":"uint256","internalType":"uint256"},{"name":"moveCommitment","type":"string","internalType":"string"}],"outputs":[],"stateMutability":"nonpayable"},{"type":"function","name":"createGame","inputs":[{"name":"adminPublicKey","type":"bytes","internalType":"bytes"},{"name":"userAddressesHash","type":"bytes32","internalType":"bytes32"},{"name":"players","type":"address[]","internalType":"address[]"},{"name":"numWerewolves","type":"uint256","internalType":"uint256"},{"name":"userRoleCommitments","type":"string[]","internalType":"string[]"}],"outputs":[{"name":"","type":"uint256","internalType":"uint256"}],"stateMutability":"nonpayable"},{"type":"function","name":"endTurn","inputs":[{"name":"gameId","type":"uint256","internalType":"uint256"}],"outputs":[],"stateMutability":"nonpayable"},{"type":"function","name":"endVote","inputs":[{"name":"gameId","type":"uint256","internalType":"uint256"}],"outputs":[],"stateMutability":"nonpayable"},{"type":"function","name":"games","inputs":[{"name":"","type":"uint256","internalType":"uint256"}],"outputs":[{"name":"admin","type":"address","internalType":"address"},{"name":"adminPublicKey","type":"bytes","internalType":"bytes"},{"name":"userAddressesHash","type":"bytes32","internalType":"bytes32"},{"name":"numPlayers","type":"uint256","internalType":"uint256"},{"name":"numWerewolves","type":"uint256","internalType":"uint256"},{"name":"turnNumber","type":"uint256","internalType":"uint256"},{"name":"lastTurnTimestamp","type":"uint256","internalType":"uint256"},{"name":"gameOver","type":"bool","internalType":"bool"},{"name":"active","type":"bool","internalType":"bool"},{"name":"voteActive","type":"bool","internalType":"bool"},{"name":"voteStartTime","type":"uint256","internalType":"uint256"},{"name":"werewolvesDiscovered","type":"uint256","internalType":"uint256"},{"name":"villagersAlive","type":"uint256","internalType":"uint256"}],"stateMutability":"view"},{"type":"function","name":"getAdmin","inputs":[{"name":"gameId","type":"uint256","internalType":"uint256"}],"outputs":[{"name":"","type":"address","internalType":"address"}],"stateMutability":"view"},{"type":"function","name":"getAdminPubKey","inputs":[{"name":"gameId","type":"uint256","internalType":"uint256"}],"outputs":[{"name":"","type":"bytes","internalType":"bytes"}],"stateMutability":"view"},{"type":"function","name":"getCurrentMoveCommitments","inputs":[{"name":"gameId","type":"uint256","internalType":"uint256"}],"outputs":[{"name":"","type":"string[]","internalType":"string[]"}],"stateMutability":"view"},{"type":"function","name":"getMoveCommitment","inputs":[{"name":"gameId","type":"uint256","internalType":"uint256"},{"name":"player","type":"address","internalType":"address"}],"outputs":[{"name":"","type":"string","internalType":"string"}],"stateMutability":"view"},{"type":"function","name":"getNumPlayers","inputs":[{"name":"gameId","type":"uint256","internalType":"uint256"}],"outputs":[{"name":"","type":"uint256","internalType":"uint256"}],"stateMutability":"view"},{"type":"function","name":"getNumWerewolves","inputs":[{"name":"gameId","type":"uint256","internalType":"uint256"}],"outputs":[{"name":"","type":"uint256","internalType":"uint256"}],"stateMutability":"view"},{"type":"function","name":"getUserAddressesHash","inputs":[{"name":"gameId","type":"uint256","internalType":"uint256"}],"outputs":[{"name":"","type":"bytes32","internalType":"bytes32"}],"stateMutability":"view"},{"type":"function","name":"getUserRoleCommitment","inputs":[{"name":"gameId","type":"uint256","internalType":"uint256"},{"name":"index","type":"uint256","internalType":"uint256"}],"outputs":[{"name":"","type":"string","internalType":"string"}],"stateMutability":"view"},{"type":"function","name":"getUserRoleCommitments","inputs":[{"name":"gameId","type":"uint256","internalType":"uint256"}],"outputs":[{"name":"","type":"string[]","internalType":"string[]"}],"stateMutability":"view"},{"type":"function","name":"getVotesAgainstPlayer","inputs":[{"name":"gameId","type":"uint256","internalType":"uint256"},{"name":"player","type":"address","internalType":"address"}],"outputs":[{"name":"","type":"uint256","internalType":"uint256"}],"stateMutability":"view"},{"type":"function","name":"isGameOver","inputs":[{"name":"gameId","type":"uint256","internalType":"uint256"}],"outputs":[{"name":"","type":"bool","internalType":"bool"}],"stateMutability":"view"},{"type":"function","name":"isGameVoteActive","inputs":[{"name":"gameId","type":"uint256","internalType":"uint256"}],"outputs":[{"name":"","type":"bool","internalType":"bool"}],"stateMutability":"view"},{"type":"function","name":"isPlayerInGame","inputs":[{"name":"gameId","type":"uint256","internalType":"uint256"},{"name":"player","type":"address","internalType":"address"}],"outputs":[{"name":"","type":"bool","internalType":"bool"}],"stateMutability":"view"},{"type":"function","name":"nextGameId","inputs":[],"outputs":[{"name":"","type":"uint256","internalType":"uint256"}],"stateMutability":"view"},{"type":"function","name":"reportEndOfTurnEvents","inputs":[{"name":"gameId","type":"uint256","internalType":"uint256"},{"name":"playersKilled","type":"address[]","internalType":"address[]"},{"name":"werewolvesDiscovered","type":"address[]","internalType":"address[]"},{"name":"gameOverReached","type":"bool","internalType":"bool"},{"name":"werewolvesWon","type":"bool","internalType":"bool"}],"outputs":[],"stateMutability":"nonpayable"},{"type":"function","name":"startVote","inputs":[{"name":"gameId","type":"uint256","internalType":"uint256"}],"outputs":[],"stateMutability":"nonpayable"},{"type":"event","name":"GameCreated","inputs":[{"name":"gameId","type":"uint256","indexed":true,"internalType":"uint256"},{"name":"admin","type":"address","indexed":true,"internalType":"address"},{"name":"adminPublicKey","type":"bytes","indexed":false,"internalType":"bytes"},{"name":"userAddressesHash","type":"bytes32","indexed":false,"internalType":"bytes32"},{"name":"numPlayers","type":"uint256","indexed":false,"internalType":"uint256"},{"name":"numWerewolves","type":"uint256","indexed":false,"internalType":"uint256"}],"anonymous":false},{"type":"event","name":"GameOver","inputs":[{"name":"gameId","type":"uint256","indexed":true,"internalType":"uint256"},{"name":"werewolvesWon","type":"bool","indexed":false,"internalType":"bool"}],"anonymous":false},{"type":"event","name":"MoveCommitted","inputs":[{"name":"gameId","type":"uint256","indexed":true,"internalType":"uint256"},{"name":"player","type":"address","indexed":true,"internalType":"address"},{"name":"commitment","type":"string","indexed":false,"internalType":"string"}],"anonymous":false},{"type":"event","name":"PlayerAddedToGame","inputs":[{"name":"gameId","type":"uint256","indexed":true,"internalType":"uint256"},{"name":"admin","type":"address","indexed":true,"internalType":"address"},{"name":"player","type":"address","indexed":true,"internalType":"address"}],"anonymous":false},{"type":"event","name":"PlayerKilled","inputs":[{"name":"gameId","type":"uint256","indexed":true,"internalType":"uint256"},{"name":"player","type":"address","indexed":true,"internalType":"address"}],"anonymous":false},{"type":"event","name":"PlayerVotedOut","inputs":[{"name":"gameId","type":"uint256","indexed":true,"internalType":"uint256"},{"name":"player","type":"address","indexed":true,"internalType":"address"}],"anonymous":false},{"type":"event","name":"TurnEnded","inputs":[{"name":"gameId","type":"uint256","indexed":true,"internalType":"uint256"},{"name":"turnNumber","type":"uint256","indexed":false,"internalType":"uint256"}],"anonymous":false},{"type":"event","name":"VoteCast","inputs":[{"name":"gameId","type":"uint256","indexed":true,"internalType":"uint256"},{"name":"voter","type":"address","indexed":true,"internalType":"address"},{"name":"target","type":"address","indexed":true,"internalType":"address"}],"anonymous":false},{"type":"event","name":"VoteStarted","inputs":[{"name":"gameId","type":"uint256","indexed":true,"internalType":"uint256"},{"name":"initiator","type":"address","indexed":true,"internalType":"address"}],"anonymous":false},{"type":"event","name":"WerewolfDiscovered","inputs":[{"name":"gameId","type":"uint256","indexed":true,"internalType":"uint256"},{"name":"player","type":"address","indexed":true,"internalType":"address"}],"anonymous":false}],"bytecode":{"object":"0x608060405234602257600e6085565b60146026565b6136f661009182396136f690f35b602c565b60405190565b5f80fd5b5f1b90565b90603f5f19916030565b9181191691161790565b90565b90565b90565b6061605d6065926049565b604f565b604c565b90565b90565b90607b60776081926052565b6068565b82546035565b9055565b608e600180606b565b56fe60806040526004361015610013575b611111565b61001d5f3561019c565b80630c71cc5a146101975780630d3b404f14610192578063111fd88b1461018d578063117a5b901461018857806313a8ad151461018357806313c772e51461017e57806318e026121461017957806327aa4644146101745780632bf336d81461016f5780632e4851b31461016a5780633f220524146101655780634654ff051461016057806355f66c471461015b57806377df41b714610156578063865df0ad146101515780638eed01f81461014c5780639f13558f14610147578063a6ab89b814610142578063b135bbb01461013d578063bc2eb2cd14610138578063d68c7ea614610133578063daecb5081461012e578063f2956ed2146101295763f2f5f1c10361000e576110dc565b6110a2565b610fbf565b610f8a565b610f3d565b610f08565b610e99565b610e64565b610e1a565b610de7565b610db3565b610d7e565b610d49565b610cd0565b610c9d565b610c68565b610b54565b610afd565b610945565b6108fc565b610821565b6103ac565b610336565b610272565b60e01c90565b60405190565b5f80fd5b5f80fd5b5f80fd5b90565b6101c0816101b4565b036101c757565b5f80fd5b905035906101d8826101b7565b565b919060408382031261020257806101f66101ff925f86016101cb565b936020016101cb565b90565b6101ac565b5190565b60209181520190565b90825f9392825e0152565b601f801991011690565b6102486102516020936102569361023f81610207565b9384809361020b565b95869101610214565b61021f565b0190565b61026f9160208201915f818403910152610229565b90565b346102a35761029f61028e6102883660046101da565b90611233565b6102966101a2565b9182918261025a565b0390f35b6101a8565b60018060a01b031690565b6102bc906102a8565b90565b6102c8816102b3565b036102cf57565b5f80fd5b905035906102e0826102bf565b565b919060408382031261030a57806102fe610307925f86016101cb565b936020016102d3565b90565b6101ac565b151590565b61031d9061030f565b9052565b9190610334905f60208501940190610314565b565b346103675761036361035261034c3660046102e2565b906112ac565b61035a6101a2565b91829182610321565b0390f35b6101a8565b9060208282031261038557610382915f016101cb565b90565b6101ac565b610393906102b3565b9052565b91906103aa905f6020850194019061038a565b565b346103dc576103d86103c76103c236600461036c565b6112da565b6103cf6101a2565b91829182610397565b0390f35b6101a8565b90565b6103f86103f36103fd926101b4565b6103e1565b6101b4565b90565b9061040a906103e4565b5f5260205260405f2090565b5f1c90565b60018060a01b031690565b61043261043791610416565b61041b565b90565b6104449054610426565b90565b634e487b7160e01b5f52602260045260245ffd5b906001600283049216801561047b575b602083101461047657565b610447565b91607f169161046b565b60209181520190565b5f5260205f2090565b905f92918054906104b16104aa8361045b565b8094610485565b916001811690815f1461050857506001146104cc575b505050565b6104d9919293945061048e565b915f925b8184106104f057505001905f80806104c7565b600181602092959395548486015201910192906104dd565b92949550505060ff19168252151560200201905f80806104c7565b9061052d91610497565b90565b634e487b7160e01b5f52604160045260245ffd5b9061054e9061021f565b810190811067ffffffffffffffff82111761056857604052565b610530565b9061058d6105869261057d6101a2565b93848092610523565b0383610544565b565b90565b61059e6105a391610416565b61058f565b90565b6105b09054610592565b90565b90565b6105c26105c791610416565b6105b3565b90565b6105d490546105b6565b90565b60ff1690565b6105e96105ee91610416565b6105d7565b90565b6105fb90546105dd565b90565b60081c90565b610610610615916105fe565b6105d7565b90565b6106229054610604565b90565b60101c90565b61063761063c91610625565b6105d7565b90565b610649905461062b565b90565b610656905f610400565b6106615f820161043a565b9161066e6001830161056d565b9161067b600282016105a6565b91610688600383016105ca565b91610695600482016105ca565b916106a2600b83016105ca565b916106af600c82016105ca565b916106bc600d83016105f1565b916106c9600d8201610618565b916106d6600d830161063f565b916106e3600e82016105ca565b916106fc60106106f5600f85016105ca565b93016105ca565b90565b5190565b60209181520190565b61072b61073460209361073993610722816106ff565b93848093610703565b95869101610214565b61021f565b0190565b90565b6107499061073d565b9052565b610756906101b4565b9052565b9a989694929d9c9b9997959391906101a08c01905f8d0161077a9161038a565b8b810360208d015261078b9161070c565b9c60408b0161079991610740565b60608a016107a69161074d565b608089016107b39161074d565b60a088016107c09161074d565b60c087016107cd9161074d565b60e086016107da91610314565b61010085016107e891610314565b61012084016107f691610314565b61014083016108049161074d565b61016082016108129161074d565b6101800161081f9161074d565b565b346108615761085d61083c61083736600461036c565b61064c565b996108549d9b9d9991999892989793979694966101a2565b9d8e9d8e61075a565b0390f35b6101a8565b5f80fd5b5f80fd5b5f80fd5b909182601f830112156108ac5781359167ffffffffffffffff83116108a75760200192600183028401116108a257565b61086e565b61086a565b610866565b9190916040818403126108f2576108ca835f83016101cb565b92602082013567ffffffffffffffff81116108ed576108e99201610872565b9091565b6101b0565b6101ac565b5f0190565b3461092b5761091561090f3660046108b1565b916118bd565b61091d6101a2565b80610927816108f7565b0390f35b6101a8565b9190610943905f6020850194019061074d565b565b346109765761097261096161095b3660046102e2565b906118e0565b6109696101a2565b91829182610930565b0390f35b6101a8565b909182601f830112156109b55781359167ffffffffffffffff83116109b05760200192600183028401116109ab57565b61086e565b61086a565b610866565b6109c38161073d565b036109ca57565b5f80fd5b905035906109db826109ba565b565b909182601f83011215610a175781359167ffffffffffffffff8311610a12576020019260208302840111610a0d57565b61086e565b61086a565b610866565b909182601f83011215610a565781359167ffffffffffffffff8311610a51576020019260208302840111610a4c57565b61086e565b61086a565b610866565b9060a082820312610af8575f82013567ffffffffffffffff8111610af35781610a8591840161097b565b929093610a9583602084016109ce565b92604083013567ffffffffffffffff8111610aee5781610ab69185016109dd565b929093610ac683606083016101cb565b92608082013567ffffffffffffffff8111610ae957610ae59201610a1c565b9091565b6101b0565b6101b0565b6101b0565b6101ac565b34610b3757610b33610b22610b13366004610a5b565b96959095949194939293611edf565b610b2a6101a2565b91829182610930565b0390f35b6101a8565b610b519160208201915f81840391015261070c565b90565b34610b8457610b80610b6f610b6a36600461036c565b6121df565b610b776101a2565b91829182610b3c565b0390f35b6101a8565b5190565b60209181520190565b60200190565b60209181520190565b610bc4610bcd602093610bd293610bbb81610207565b93848093610b9c565b95869101610214565b61021f565b0190565b90610be091610ba5565b90565b60200190565b90610bfd610bf683610b89565b8092610b8d565b9081610c0e60208302840194610b96565b925f915b838310610c2157505050505090565b90919293946020610c43610c3d83856001950387528951610bd6565b97610be3565b9301930191939290610c12565b610c659160208201915f818403910152610be9565b90565b34610c9857610c94610c83610c7e36600461036c565b6122a8565b610c8b6101a2565b91829182610c50565b0390f35b6101a8565b34610ccb57610cb5610cb036600461036c565b6127a0565b610cbd6101a2565b80610cc7816108f7565b0390f35b6101a8565b34610cfe57610ce8610ce336600461036c565b612a1d565b610cf06101a2565b80610cfa816108f7565b0390f35b6101a8565b5f910312610d0d57565b6101ac565b90565b610d29610d24610d2e92610d12565b6103e1565b6101b4565b90565b610d3b60b4610d15565b90565b610d46610d31565b90565b34610d7957610d59366004610d03565b610d75610d64610d3e565b610d6c6101a2565b91829182610930565b0390f35b6101a8565b34610dae57610daa610d99610d9436600461036c565b612a28565b610da16101a2565b91829182610930565b0390f35b6101a8565b34610de257610dcc610dc63660046102e2565b90612d48565b610dd46101a2565b80610dde816108f7565b0390f35b6101a8565b34610e1557610dff610dfa36600461036c565b6131da565b610e076101a2565b80610e11816108f7565b0390f35b6101a8565b34610e4a57610e46610e35610e3036600461036c565b6131e5565b610e3d6101a2565b91829182610321565b0390f35b6101a8565b9190610e62905f60208501940190610740565b565b34610e9457610e90610e7f610e7a36600461036c565b61320a565b610e876101a2565b91829182610e4f565b0390f35b6101a8565b34610eca57610ec6610eb5610eaf3660046102e2565b9061322b565b610ebd6101a2565b9182918261025a565b0390f35b6101a8565b1c90565b610ee3906008610ee89302610ecf565b6105b3565b90565b90610ef69154610ed3565b90565b610f0560015f90610eeb565b90565b34610f3857610f18366004610d03565b610f34610f23610ef9565b610f2b6101a2565b91829182610930565b0390f35b6101a8565b34610f6d57610f69610f58610f5336600461036c565b613255565b610f606101a2565b91829182610930565b0390f35b6101a8565b610f7c60b4610d15565b90565b610f87610f72565b90565b34610fba57610f9a366004610d03565b610fb6610fa5610f7f565b610fad6101a2565b91829182610930565b0390f35b6101a8565b34610fef57610feb610fda610fd536600461036c565b613276565b610fe26101a2565b91829182610321565b0390f35b6101a8565b610ffd8161030f565b0361100457565b5f80fd5b9050359061101582610ff4565b565b909160a08284031261109d5761102f835f84016101cb565b92602083013567ffffffffffffffff811161109857816110509185016109dd565b92909360408101359167ffffffffffffffff831161109357611077846110909484016109dd565b9390946110878160608601611008565b93608001611008565b90565b6101b0565b6101b0565b6101ac565b346110d7576110c16110b5366004611017565b9594909493919361368e565b6110c96101a2565b806110d3816108f7565b0390f35b6101a8565b3461110c576111086110f76110f236600461036c565b61369f565b6110ff6101a2565b91829182610c50565b0390f35b6101a8565b5f80fd5b606090565b634e487b7160e01b5f52603260045260245ffd5b5490565b5f5260205f2090565b6111448161112e565b82101561115e57611156600191611132565b910201905f90565b61111a565b5f5260205f2090565b905f929180549061118661117f8361045b565b8094610b9c565b916001811690815f146111dd57506001146111a1575b505050565b6111ae9192939450611163565b915f925b8184106111c557505001905f808061119c565b600181602092959395548486015201910192906111b2565b92949550505060ff19168252151560200201905f808061119c565b906112029161116c565b90565b9061122561121e926112156101a2565b938480926111f8565b0383610544565b565b61123090611205565b90565b61125b91600561124f61125593611248611115565b505f610400565b0161113b565b50611227565b90565b5f90565b61127661127161127b926102a8565b6103e1565b6102a8565b90565b61128790611262565b90565b6112939061127e565b90565b906112a09061128a565b5f5260205260405f2090565b6112d39160066112c86112ce936112c161125e565b505f610400565b01611296565b6105f1565b90565b5f90565b5f6112f16112f7926112ea6112d6565b5082610400565b0161043a565b90565b5f7f47616d65206e6f74206163746976650000000000000000000000000000000000910152565b61132e600f60209261020b565b611337816112fa565b0190565b6113509060208101905f818303910152611321565b90565b1561135a57565b6113626101a2565b62461bcd60e51b8152806113786004820161133b565b0390fd5b906113a4929161139f61139a600d611394845f610400565b01610618565b611353565b611428565b565b5f7f4e6f7420706c6179657220696e2067616d650000000000000000000000000000910152565b6113da601260209261020b565b6113e3816113a6565b0190565b6113fc9060208101905f8183039101526113cd565b90565b1561140657565b61140e6101a2565b62461bcd60e51b815280611424600482016113e7565b0390fd5b9061145a929161145561145061144b6006611443855f610400565b013390611296565b6105f1565b6113ff565b6117f2565b565b90565b906114699061128a565b5f5260205260405f2090565b90565b611482905461045b565b90565b90565b61149c6114976114a192611485565b6103e1565b6101b4565b90565b5f7f416c7265616479207375626d6974746564206d6f76652074686973207475726e910152565b6114d76020809261020b565b6114e0816114a4565b0190565b6114f99060208101905f8183039101526114cb565b90565b1561150357565b61150b6101a2565b62461bcd60e51b815280611521600482016114e4565b0390fd5b634e487b7160e01b5f525f60045260245ffd5b5090565b601f602091010490565b1b90565b9190600861156591029161155f5f1984611546565b92611546565b9181191691161790565b90565b9190611588611583611590936103e4565b61156f565b90835461154a565b9055565b5f90565b6115aa916115a4611594565b91611572565b565b5b8181106115b8575050565b806115c55f600193611598565b016115ad565b9190601f81116115db575b505050565b6115e761160c93611163565b9060206115f38461153c565b83019310611614575b6116059061153c565b01906115ac565b5f80806115d6565b9150611605819290506115fc565b90611632905f1990600802610ecf565b191690565b8161164191611622565b906002021790565b916116549082611538565b9067ffffffffffffffff82116117135761167882611672855461045b565b856115cb565b5f90601f83116001146116ab5791809161169a935f9261169f575b5050611637565b90555b565b90915001355f80611693565b601f198316916116ba85611163565b925f5b8181106116fb575091600293918560019694106116e1575b5050500201905561169d565b6116f1910135601f841690611622565b90555f80806116d5565b919360206001819287870135815501950192016116bd565b610530565b906117239291611649565b565b90565b5f5260205f2090565b5490565b61173e81611731565b82101561175857611750600191611728565b910201905f90565b61111a565b92919061176f5761176d92611649565b565b611525565b9190825492680100000000000000008410156117a5578361179d9160016117a396018155611735565b9061175d565b565b610530565b90825f939282370152565b91906117cf816117c8816117d49561020b565b80956117aa565b61021f565b0190565b90916117ef9260208301925f8185039101526117b5565b90565b61186d611865601161180d6118085f8690610400565b61145c565b61184661182e61182961182460078501339061145f565b611475565b611478565b61184061183a5f611488565b916101b4565b146114fc565b61185f86889061185a60078501339061145f565b611718565b01611725565b838591611774565b3391926118a361189d7f7b2ce9043d076845959224550c864757ef137974356c32d1afbbed11cb604d2d936103e4565b9361128a565b936118b86118af6101a2565b928392836117d8565b0390a3565b906118c8929161137c565b565b906118d49061128a565b5f5260205260405f2090565b61190791600a6118fc611902936118f5611594565b505f610400565b016118ca565b6105ca565b90565b5090565b5090565b60207f736d617463680000000000000000000000000000000000000000000000000000917f506c617965727320616e6420636f6d6d69746d656e747320636f756e74206d695f8201520152565b61196c602660409261020b565b61197581611912565b0190565b61198e9060208101905f81830391015261195f565b90565b1561199857565b6119a06101a2565b62461bcd60e51b8152806119b660048201611979565b0390fd5b5f7f496e76616c69642077657265776f6c6620636f756e7400000000000000000000910152565b6119ee601660209261020b565b6119f7816119ba565b0190565b611a109060208101905f8183039101526119e1565b90565b15611a1a57565b611a226101a2565b62461bcd60e51b815280611a38600482016119fb565b0390fd5b634e487b7160e01b5f52601160045260245ffd5b611a59906101b4565b5f198114611a675760010190565b611a3c565b5f1b90565b90611a7d5f1991611a6c565b9181191691161790565b90611a9c611a97611aa3926103e4565b61156f565b8254611a71565b9055565b90611ab860018060a01b0391611a6c565b9181191691161790565b90565b90611ada611ad5611ae19261128a565b611ac2565b8254611aa7565b9055565b5090565b9190601f8111611af9575b505050565b611b05611b2a9361048e565b906020611b118461153c565b83019310611b32575b611b239061153c565b01906115ac565b5f8080611af4565b9150611b2381929050611b1a565b91611b4b9082611ae5565b9067ffffffffffffffff8211611c0a57611b6f82611b69855461045b565b85611ae9565b5f90601f8311600114611ba257918091611b91935f92611b96575b5050611637565b90555b565b90915001355f80611b8a565b601f19831691611bb18561048e565b925f5b818110611bf257509160029391856001969410611bd8575b50505002019055611b94565b611be8910135601f841690611622565b90555f8080611bcc565b91936020600181928787013581550195019201611bb4565b610530565b90611c1a9291611b40565b565b611c259061073d565b90565b611c3190610416565b90565b90611c49611c44611c5092611c1c565b611c28565b8254611a71565b9055565b60081b90565b90611c6761ff0091611c54565b9181191691161790565b611c7a9061030f565b90565b90565b90611c95611c90611c9c92611c71565b611c7d565b8254611c5a565b9055565b90565b611cb7611cb2611cbc92611ca0565b6103e1565b6101b4565b90565b611cce611cd4919392936101b4565b926101b4565b8203918211611cdf57565b611a3c565b6001611cf091016101b4565b90565b9190811015611d03576020020190565b61111a565b35611d12816102bf565b90565b90611d2160ff91611a6c565b9181191691161790565b90611d40611d3b611d4792611c71565b611c7d565b8254611d15565b9055565b5f80fd5b5f80fd5b5f80fd5b903590600160200381360303821215611d99570180359067ffffffffffffffff8211611d9457602001916001820236038313611d8f57565b611d53565b611d4f565b611d4b565b90821015611db9576020611db59202810190611d57565b9091565b61111a565b90565b5f5260205f2090565b5490565b611dd781611dca565b821015611df157611de9600191611dc1565b910201905f90565b61111a565b91906008611e16910291611e1060018060a01b0384611546565b92611546565b9181191691161790565b9190611e36611e31611e3e9361128a565b611ac2565b908354611df6565b9055565b9081549168010000000000000000831015611e725782611e6a916001611e7095018155611dce565b90611e20565b565b610530565b9190611e9181611e8a81611e9695610703565b80956117aa565b61021f565b0190565b90611edd94611ecc611ec1611ed6936060969a99979a60808701918783035f890152611e77565b986020850190610740565b604083019061074d565b019061074d565b565b979093959294969197611ef0611594565b50611f21611eff87899061190a565b611f1b611f15611f1088889061190e565b6101b4565b916101b4565b14611991565b87611f34611f2e5f611488565b916101b4565b11806121a5575b611f4490611a13565b611f4e60016105ca565b611f61611f5a82611a50565b6001611a87565b98611f75611f705f8c90610400565b61145c565b95611f82335f8901611ac5565b611f9183829060018a01611c0f565b611f9e8260028901611c34565b611fb5611fac898b9061190a565b60038901611a87565b611fc28a60048901611a87565b611fd06001600d8901611c80565b611fe6611fdd6001611ca3565b600b8901611a87565b611ff342600c8901611a87565b61201461200b6120048a8c9061190a565b8c90611cbf565b60108901611a87565b61201d5f611488565b5b8061203a61203461202f8d8d61190a565b6101b4565b916101b4565b101561213c57808a8a6120df8f6120da906120cf6120b58f8f908f6012926120a96120af926120936121379f61208e8f8f906120836120889160019560068d0194919091611cf3565b611d08565b90611296565b611d2b565b8d6120a060058701611725565b93919091611d9e565b91611774565b01611dbe565b6120c96120c487898b91611cf3565b611d08565b90611e42565b933393908691611cf3565b611d08565b9061211c6121166121107f58818704d7fdb1f404b3dfeeaf892268ea5569d6963c910ecd91a318f8ffad79956103e4565b9261128a565b9261128a565b926121256101a2565b8061212f816108f7565b0390a4611ce4565b61201e565b509350935094959350969561219f9061215a8895339794959861190a565b61218d6121877f0f0f9dd08b312998ec49c8a73ee13b951f074af30f0a3084044232dd1b5f7350976103e4565b9761128a565b976121966101a2565b95869586611e9a565b0390a390565b50611f44886121c66121c06121bb8a8c9061190a565b6101b4565b916101b4565b109050611f3b565b606090565b6121dc9061056d565b90565b60016121f76121fd926121f06121ce565b505f610400565b016121d3565b90565b606090565b906122186122116101a2565b9283610544565b565b67ffffffffffffffff81116122325760208091020190565b610530565b906122496122448361221a565b612205565b918252565b906122588261112e565b61226181612237565b9261226f6020850191611132565b5f915b83831061227f5750505050565b60016020819261228e85611227565b815201920192019190612272565b6122a59061224e565b90565b60116122c06122c6926122b9612200565b505f610400565b0161229c565b90565b6122ef906122ea6122e5600d6122df845f610400565b01610618565b611353565b6126ac565b565b612300612306919392936101b4565b926101b4565b820180921161231157565b611a3c565b5f7f5475726e2074696d65206e6f7420656c61707365640000000000000000000000910152565b61234a601560209261020b565b61235381612316565b0190565b61236c9060208101905f81830391015261233d565b90565b1561237657565b61237e6101a2565b62461bcd60e51b81528061239460048201612357565b0390fd5b60207f726e206973206d61726b6564206173206f766572000000000000000000000000917f566f7465206d75737420626520636f6d706c65746564206265666f72652074755f8201520152565b6123f2603460409261020b565b6123fb81612398565b0190565b6124149060208101905f8183039101526123e5565b90565b1561241e57565b6124266101a2565b62461bcd60e51b81528061243c600482016123ff565b0390fd5b600190818003010490565b9061245e905f1990602003600802610ecf565b8154169055565b905f9161247c61247482611163565b928354611637565b905555565b919290602082105f146124da57601f84116001146124aa576124a4929350611637565b90555b5b565b50906124d06124d59360016124c76124c185611163565b9261153c565b820191016115ac565b612465565b6124a7565b5061251182936124eb600194611163565b61250a6124f78561153c565b820192601f86168061251c575b5061153c565b01906115ac565b6002021790556124a8565b6125289088860361244b565b5f612504565b92909168010000000000000000821161258e576020115f1461257f57602081105f146125635761255d91611637565b90555b5b565b60019160ff191661257384611163565b55600202019055612560565b60019150600202019055612561565b610530565b90815461259f8161045b565b908183116125c8575b8183106125b6575b50505050565b6125bf93612481565b5f8080806125b0565b6125d48383838761252e565b6125a8565b5f6125e391612593565b565b905f036125f7576125f5906125d9565b565b611525565b5b818110612608575050565b806126155f6001936125e5565b016125fd565b909182811061262a575b505050565b61264861264261263c61265395612440565b92612440565b92611132565b9182019101906125fc565b5f8080612625565b9068010000000000000000811161268457816126796126829361112e565b9082815561261b565b565b610530565b5f6126939161265b565b565b905f036126a7576126a590612689565b565b611525565b61279e906126c36126be5f8390610400565b61145c565b906126fd426126f66126f06126eb6126dd600c88016105ca565b6126e5610f72565b906122f1565b6101b4565b916101b4565b101561236f565b61271a61271561270f600d850161063f565b1561030f565b612417565b612726600b83016105ca565b906127666127547f75d01de32c3deb8c8c4d5f1b293c09b870d2d91a016b81ac3e153fe8c60309a0926103e4565b9261275d6101a2565b91829182610930565b0390a26127765f60118301612695565b612794600b820161278e612789826105ca565b611a50565b90611a87565b600c429101611a87565b565b6127a9906122c9565b565b6127d1906127cc6127c7600d6127c1845f610400565b01610618565b611353565b6127d3565b565b612803906127fe6127f96127f460066127ec855f610400565b013390611296565b6105f1565b6113ff565b612947565b565b5f7f566f746520616c72656164792061637469766500000000000000000000000000910152565b612839601360209261020b565b61284281612805565b0190565b61285b9060208101905f81830391015261282c565b90565b1561286557565b61286d6101a2565b62461bcd60e51b81528061288360048201612846565b0390fd5b5f7f416c72656164792073746172746564206120766f746500000000000000000000910152565b6128bb601660209261020b565b6128c481612887565b0190565b6128dd9060208101905f8183039101526128ae565b90565b156128e757565b6128ef6101a2565b62461bcd60e51b815280612905600482016128c8565b0390fd5b60101b90565b9061291d62ff000091612909565b9181191691161790565b9061293c61293761294392611c71565b611c7d565b825461290f565b9055565b6129d161295d6129585f8490610400565b61145c565b61297a61297561296f600d840161063f565b1561030f565b61285e565b6129a161299c612996612991600885013390611296565b6105f1565b1561030f565b6128e0565b6129af6001600d8301612927565b6129bc42600e8301611a87565b6129cc6008600192013390611296565b611d2b565b33612a056129ff7f8610d91e9f8a63773d7a3c13aa8bb8407203532a61bb703c06fce895f9622d0d936103e4565b9161128a565b91612a0e6101a2565b80612a18816108f7565b0390a3565b612a26906127ab565b565b6003612a40612a4692612a39611594565b505f610400565b016105ca565b90565b90612a7091612a6b612a66600d612a60845f610400565b01610618565b611353565b612a72565b565b90612aa391612a9e612a99612a946006612a8c855f610400565b013390611296565b6105f1565b6113ff565b612c2b565b565b5f7f4e6f2061637469766520766f7465000000000000000000000000000000000000910152565b612ad9600e60209261020b565b612ae281612aa5565b0190565b612afb9060208101905f818303910152612acc565b90565b15612b0557565b612b0d6101a2565b62461bcd60e51b815280612b2360048201612ae6565b0390fd5b5f7f566f74652074696d6520656c6170736564000000000000000000000000000000910152565b612b5b601160209261020b565b612b6481612b27565b0190565b612b7d9060208101905f818303910152612b4e565b90565b15612b8757565b612b8f6101a2565b62461bcd60e51b815280612ba560048201612b68565b0390fd5b5f7f416c726561647920766f74656400000000000000000000000000000000000000910152565b612bdd600d60209261020b565b612be681612ba9565b0190565b612bff9060208101905f818303910152612bd0565b90565b15612c0957565b612c116101a2565b62461bcd60e51b815280612c2760048201612bea565b0390fd5b612cf2612c41612c3c5f8490610400565b61145c565b612c55612c50600d830161063f565b612afe565b612c8e42612c87612c81612c7c612c6e600e87016105ca565b612c76610d31565b906122f1565b6101b4565b916101b4565b1115612b80565b612cb5612cb0612caa612ca5600985013390611296565b6105f1565b1561030f565b612c02565b612cdd612cc6600a830186906118ca565b612cd7612cd2826105ca565b611a50565b90611a87565b612ced6009600192013390611296565b611d2b565b9033612d30612d2a612d247fcfff1651bcea794952a516ce970ab17518a85210bd939aaeaac670a8d3e65ec7956103e4565b9261128a565b9261128a565b92612d396101a2565b80612d43816108f7565b0390a4565b90612d5291612a49565b565b5f7f4e6f742067616d652061646d696e000000000000000000000000000000000000910152565b612d88600e60209261020b565b612d9181612d54565b0190565b612daa9060208101905f818303910152612d7b565b90565b15612db457565b612dbc6101a2565b62461bcd60e51b815280612dd260048201612d95565b0390fd5b612e0e90612e09612df15f612deb8482610400565b0161043a565b612e03612dfd336102b3565b916102b3565b14612dad565b612e10565b565b612e3690612e31612e2c600d612e26845f610400565b01610618565b611353565b612f98565b565b5f7f566f74652074696d65206e6f7420656c61707365640000000000000000000000910152565b612e6c601560209261020b565b612e7581612e38565b0190565b612e8e9060208101905f818303910152612e5f565b90565b15612e9857565b612ea06101a2565b62461bcd60e51b815280612eb660048201612e79565b0390fd5b5490565b5f5260205f2090565b612ed081612eba565b821015612eea57612ee2600191612ebe565b910201905f90565b61111a565b612eff906008612f049302610ecf565b61041b565b90565b90612f129154612eef565b90565b612f29612f24612f2e92611485565b6103e1565b6102a8565b90565b612f3a90612f15565b90565b91906008612f58910291612f5260ff84611546565b92611546565b9181191691161790565b9190612f78612f73612f8093611c71565b611c7d565b908354612f3d565b9055565b612f9691612f9061125e565b91612f62565b565b612fab612fa65f8390610400565b61145c565b91612fc0612fbb600d850161063f565b612afe565b612ff942612ff2612fec612fe7612fd9600e89016105ca565b612fe1610d31565b906122f1565b6101b4565b916101b4565b1015612e91565b6130016112d6565b613009611594565b9161301660128601612eba565b916130205f611488565b5b8061303461302e866101b4565b916101b4565b10156130c25761305161304b601289018390612ec7565b90612f07565b61306761306260068a018390611296565b6105f1565b61307b575b5061307690611ce4565b613021565b61309161308c600a8a0183906118ca565b6105ca565b806130a461309e896101b4565b916101b4565b116130b0575b5061306c565b9095506130769192509491905f6130aa565b509193909250816130e36130dd6130d85f612f31565b6102b3565b916102b3565b03613172575b50506130f85f600d8501612927565b6131015f611488565b5b8061311561310f856101b4565b916101b4565b101561316c57613167906131625f61315d61313d61313760128a018690612ec7565b90612f07565b6131548361314f600a8c0184906118ca565b611598565b60098901611296565b612f84565b611ce4565b613102565b50915050565b6131895f613184600688018590611296565b611d2b565b906131bd6131b77f16bf8c8167633c3b24ba3824f3a69950ddff073ec694cf193e8a1acd32f2e271936103e4565b9161128a565b916131c66101a2565b806131d0816108f7565b0390a35f806130e9565b6131e390612dd6565b565b600d6131fd613203926131f661125e565b505f610400565b016105f1565b90565b5f90565b60026132226132289261321b613206565b505f610400565b016105a6565b90565b61325291600761324761324d93613240611115565b505f610400565b0161145f565b611227565b90565b600461326d61327392613266611594565b505f610400565b016105ca565b90565b600d61328e6132949261328761125e565b505f610400565b0161063f565b90565b906132d59695949392916132d06132b85f6132b28482610400565b0161043a565b6132ca6132c4336102b3565b916102b3565b14612dad565b6133f7565b565b5f7f47616d6520697320616c7265616479206f766572210000000000000000000000910152565b61330b601560209261020b565b613314816132d7565b0190565b61332d9060208101905f8183039101526132fe565b90565b1561333757565b61333f6101a2565b62461bcd60e51b81528061335560048201613318565b0390fd5b5f7f546f6f20736f6f6e20746f207374617274206e657874207475726e0000000000910152565b61338d601b60209261020b565b61339681613359565b0190565b6133af9060208101905f818303910152613380565b90565b156133b957565b6133c16101a2565b62461bcd60e51b8152806133d76004820161339a565b0390fd5b6133e4906101b4565b5f81146133f2576001900390565b611a3c565b96949193909261341061340b5f8a90610400565b61145c565b9561342e613429613423600d8a016105f1565b1561030f565b613330565b6134674261346061345a613455613447600c8d016105ca565b61344f610f72565b906122f1565b6101b4565b916101b4565b10156133b2565b6134705f611488565b5b8061348e613488613483898b9061190a565b6101b4565b916101b4565b101561353657613531906134ac6134a7888a8491611cf3565b611d08565b6134c35f6134be60068d018490611296565b611d2b565b6134e160108b016134db6134d6826105ca565b6133db565b90611a87565b8b906135166135107f17bbddf7564415da2a525f1a441df1385857f5438a6c5836a1a5d71fa1c1bb8c936103e4565b9161128a565b9161351f6101a2565b80613529816108f7565b0390a3611ce4565b613471565b50929691945092506135475f611488565b5b8061356561355f61355a87899061190a565b6101b4565b916101b4565b101561360d576136089061358361357e86888491611cf3565b611d08565b61359a5f61359560068b018490611296565b611d2b565b89906135cf6135c97ff388b505ea0c0d929a449ac2d0cf7a986938d457cf98db660cd6d9748e3a457f936103e4565b9161128a565b916135d86101a2565b806135e2816108f7565b0390a3613603600f88016135fd6135f8826105ca565b611a50565b90611a87565b611ce4565b613548565b5092509490506136289361362a575b5050600c429101611a87565b565b6136375f600d8501611c80565b6136456001600d8501611d2b565b6136846136727fa8f10fec0e4f3aca13e34943bf6eb048175fd5eb854d4e73d17923cb37ef4988926103e4565b9261367b6101a2565b91829182610321565b0390a25f8061361c565b9061369d969594939291613297565b565b60056136b76136bd926136b0612200565b505f610400565b0161229c565b9056fea26469706673582212208ed6a30332e7f463f5cd9691f0ee2ccc3d11e97521167e8638251c137be424ac64736f6c634300081e0033","linkReferences":{}},"methodIdentifiers":{"TURN_DURATION()":"d68c7ea6","VOTE_DURATION()":"4654ff05","castVote(uint256,address)":"77df41b7","commitMove(uint256,string)":"13a8ad15","createGame(bytes,bytes32,address[],uint256,string[])":"18e02612","endTurn(uint256)":"2e4851b3","endVote(uint256)":"865df0ad","games(uint256)":"117a5b90","getAdmin(uint256)":"111fd88b","getAdminPubKey(uint256)":"27aa4644","getCurrentMoveCommitments(uint256)":"2bf336d8","getMoveCommitment(uint256,address)":"a6ab89b8","getNumPlayers(uint256)":"55f66c47","getNumWerewolves(uint256)":"bc2eb2cd","getUserAddressesHash(uint256)":"9f13558f","getUserRoleCommitment(uint256,uint256)":"0c71cc5a","getUserRoleCommitments(uint256)":"f2f5f1c1","getVotesAgainstPlayer(uint256,address)":"13c772e5","isGameOver(uint256)":"8eed01f8","isGameVoteActive(uint256)":"daecb508","isPlayerInGame(uint256,address)":"0d3b404f","nextGameId()":"b135bbb0","reportEndOfTurnEvents(uint256,address[],address[],bool,bool)":"f2956ed2","startVote(uint256)":"3f220524"},"id":21}